{
  "_format": "hh-sol-artifact-1",
  "contractName": "PetAdoption",
  "sourceName": "contracts/PetAdoption.sol",
  "abi": [
    {
      "inputs": [
        {
          "internalType": "uint256",
          "name": "initialPetIndex",
          "type": "uint256"
        }
      ],
      "stateMutability": "nonpayable",
      "type": "constructor"
    },
    {
      "inputs": [],
      "name": "addPet",
      "outputs": [],
      "stateMutability": "nonpayable",
      "type": "function"
    },
    {
      "inputs": [
        {
          "internalType": "uint256",
          "name": "adoptIdx",
          "type": "uint256"
        }
      ],
      "name": "adoptPet",
      "outputs": [],
      "stateMutability": "nonpayable",
      "type": "function"
    },
    {
      "inputs": [
        {
          "internalType": "uint256",
          "name": "",
          "type": "uint256"
        }
      ],
      "name": "allAdoptedPets",
      "outputs": [
        {
          "internalType": "uint256",
          "name": "",
          "type": "uint256"
        }
      ],
      "stateMutability": "view",
      "type": "function"
    },
    {
      "inputs": [],
      "name": "getAllAdoptedPets",
      "outputs": [
        {
          "internalType": "uint256[]",
          "name": "",
          "type": "uint256[]"
        }
      ],
      "stateMutability": "view",
      "type": "function"
    },
    {
      "inputs": [],
      "name": "getAllAdoptedPetsByOwner",
      "outputs": [
        {
          "internalType": "uint256[]",
          "name": "",
          "type": "uint256[]"
        }
      ],
      "stateMutability": "view",
      "type": "function"
    },
    {
      "inputs": [],
      "name": "getOwner",
      "outputs": [
        {
          "internalType": "address",
          "name": "",
          "type": "address"
        }
      ],
      "stateMutability": "view",
      "type": "function"
    },
    {
      "inputs": [],
      "name": "owner",
      "outputs": [
        {
          "internalType": "address",
          "name": "",
          "type": "address"
        }
      ],
      "stateMutability": "view",
      "type": "function"
    },
    {
      "inputs": [
        {
          "internalType": "address",
          "name": "",
          "type": "address"
        },
        {
          "internalType": "uint256",
          "name": "",
          "type": "uint256"
        }
      ],
      "name": "ownerToPets",
      "outputs": [
        {
          "internalType": "uint256",
          "name": "",
          "type": "uint256"
        }
      ],
      "stateMutability": "view",
      "type": "function"
    },
    {
      "inputs": [],
      "name": "petIndex",
      "outputs": [
        {
          "internalType": "uint256",
          "name": "",
          "type": "uint256"
        }
      ],
      "stateMutability": "view",
      "type": "function"
    },
    {
      "inputs": [
        {
          "internalType": "uint256",
          "name": "",
          "type": "uint256"
        }
      ],
      "name": "petToOwner",
      "outputs": [
        {
          "internalType": "address",
          "name": "",
          "type": "address"
        }
      ],
      "stateMutability": "view",
      "type": "function"
    }
  ],
  "bytecode": "0x6080604052600060015534801561001557600080fd5b50604051610b60380380610b60833981810160405281019061003791906100bf565b336000806101000a81548173ffffffffffffffffffffffffffffffffffffffff021916908373ffffffffffffffffffffffffffffffffffffffff16021790555080600181905550506100ec565b600080fd5b6000819050919050565b61009c81610089565b81146100a757600080fd5b50565b6000815190506100b981610093565b92915050565b6000602082840312156100d5576100d4610084565b5b60006100e3848285016100aa565b91505092915050565b610a65806100fb6000396000f3fe608060405234801561001057600080fd5b506004361061009e5760003560e01c80638da5cb5b116100665780638da5cb5b146101235780639e0a1b7f14610141578063a002a13514610171578063c6431043146101a1578063f2d5a055146101d15761009e565b806319b81577146100a357806330671a09146100bf5780633ff4a0eb146100dd57806346f43d43146100fb578063893d20e814610105575b600080fd5b6100bd60048036038101906100b89190610664565b6101ef565b005b6100c76103b9565b6040516100d491906106a0565b60405180910390f35b6100e56103bf565b6040516100f29190610779565b60405180910390f35b610103610417565b005b61010d6104bf565b60405161011a91906107dc565b60405180910390f35b61012b6104e8565b60405161013891906107dc565b60405180910390f35b61015b60048036038101906101569190610823565b61050c565b60405161016891906106a0565b60405180910390f35b61018b60048036038101906101869190610664565b61053d565b60405161019891906106a0565b60405180910390f35b6101bb60048036038101906101b69190610664565b610561565b6040516101c891906107dc565b60405180910390f35b6101d9610594565b6040516101e69190610779565b60405180910390f35b6001548110610233576040517f08c379a000000000000000000000000000000000000000000000000000000000815260040161022a906108c0565b60405180910390fd5b600073ffffffffffffffffffffffffffffffffffffffff166003600083815260200190815260200160002060009054906101000a900473ffffffffffffffffffffffffffffffffffffffff1673ffffffffffffffffffffffffffffffffffffffff16146102d5576040517f08c379a00000000000000000000000000000000000000000000000000000000081526004016102cc9061092c565b60405180910390fd5b336003600083815260200190815260200160002060006101000a81548173ffffffffffffffffffffffffffffffffffffffff021916908373ffffffffffffffffffffffffffffffffffffffff160217905550600460003373ffffffffffffffffffffffffffffffffffffffff1673ffffffffffffffffffffffffffffffffffffffff168152602001908152602001600020819080600181540180825580915050600190039060005260206000200160009091909190915055600281908060018154018082558091505060019003906000526020600020016000909190919091505550565b60015481565b6060600280548060200260200160405190810160405280929190818152602001828054801561040d57602002820191906000526020600020905b8154815260200190600101908083116103f9575b5050505050905090565b60008054906101000a900473ffffffffffffffffffffffffffffffffffffffff1673ffffffffffffffffffffffffffffffffffffffff163373ffffffffffffffffffffffffffffffffffffffff16146104a5576040517f08c379a000000000000000000000000000000000000000000000000000000000815260040161049c90610998565b60405180910390fd5b600160008154809291906104b8906109e7565b9190505550565b60008060009054906101000a900473ffffffffffffffffffffffffffffffffffffffff16905090565b60008054906101000a900473ffffffffffffffffffffffffffffffffffffffff1681565b6004602052816000526040600020818154811061052857600080fd5b90600052602060002001600091509150505481565b6002818154811061054d57600080fd5b906000526020600020016000915090505481565b60036020528060005260406000206000915054906101000a900473ffffffffffffffffffffffffffffffffffffffff1681565b6060600460003373ffffffffffffffffffffffffffffffffffffffff1673ffffffffffffffffffffffffffffffffffffffff16815260200190815260200160002080548060200260200160405190810160405280929190818152602001828054801561061f57602002820191906000526020600020905b81548152602001906001019080831161060b575b5050505050905090565b600080fd5b6000819050919050565b6106418161062e565b811461064c57600080fd5b50565b60008135905061065e81610638565b92915050565b60006020828403121561067a57610679610629565b5b60006106888482850161064f565b91505092915050565b61069a8161062e565b82525050565b60006020820190506106b56000830184610691565b92915050565b600081519050919050565b600082825260208201905092915050565b6000819050602082019050919050565b6106f08161062e565b82525050565b600061070283836106e7565b60208301905092915050565b6000602082019050919050565b6000610726826106bb565b61073081856106c6565b935061073b836106d7565b8060005b8381101561076c57815161075388826106f6565b975061075e8361070e565b92505060018101905061073f565b5085935050505092915050565b60006020820190508181036000830152610793818461071b565b905092915050565b600073ffffffffffffffffffffffffffffffffffffffff82169050919050565b60006107c68261079b565b9050919050565b6107d6816107bb565b82525050565b60006020820190506107f160008301846107cd565b92915050565b610800816107bb565b811461080b57600080fd5b50565b60008135905061081d816107f7565b92915050565b6000806040838503121561083a57610839610629565b5b60006108488582860161080e565b92505060206108598582860161064f565b9150509250929050565b600082825260208201905092915050565b7f50657420696e646578206f7574206f662072616e676500000000000000000000600082015250565b60006108aa601683610863565b91506108b582610874565b602082019050919050565b600060208201905081810360008301526108d98161089d565b9050919050565b7f50657420616c72656164792061646f7074656400000000000000000000000000600082015250565b6000610916601383610863565b9150610921826108e0565b602082019050919050565b6000602082019050818103600083015261094581610909565b9050919050565b7f596f7520617265206e6f74206120636f6e7472616374206f776e65722e000000600082015250565b6000610982601d83610863565b915061098d8261094c565b602082019050919050565b600060208201905081810360008301526109b181610975565b9050919050565b7f4e487b7100000000000000000000000000000000000000000000000000000000600052601160045260246000fd5b60006109f28261062e565b91507fffffffffffffffffffffffffffffffffffffffffffffffffffffffffffffffff8203610a2457610a236109b8565b5b60018201905091905056fea2646970667358221220f7b9dca39c3cb67121d17d59d6d3c59e0181670f8b94ec60ca7279ccad1b0aa964736f6c63430008180033",
  "linkReferences": {},
  "deployedLinkReferences": {}
}