{
  "_format": "hh-sol-artifact-1",
  "contractName": "PetAdoption",
  "sourceName": "contracts/PetAdoption.sol",
  "abi": [
    {
      "inputs": [],
      "stateMutability": "nonpayable",
      "type": "constructor"
    },
    {
      "inputs": [
        {
          "internalType": "string",
          "name": "category",
          "type": "string"
        },
        {
          "internalType": "string",
          "name": "breed",
          "type": "string"
        }
      ],
      "name": "addPet",
      "outputs": [],
      "stateMutability": "nonpayable",
      "type": "function"
    },
    {
      "inputs": [
        {
          "internalType": "uint256",
          "name": "adoptIdx",
          "type": "uint256"
        }
      ],
      "name": "adoptPet",
      "outputs": [],
      "stateMutability": "nonpayable",
      "type": "function"
    },
    {
      "inputs": [],
      "name": "getAllAdoptedPets",
      "outputs": [
        {
          "components": [
            {
              "internalType": "uint256",
              "name": "id",
              "type": "uint256"
            },
            {
              "internalType": "string",
              "name": "category",
              "type": "string"
            },
            {
              "internalType": "string",
              "name": "breed",
              "type": "string"
            }
          ],
          "internalType": "struct PetAdoption.Pet[]",
          "name": "",
          "type": "tuple[]"
        }
      ],
      "stateMutability": "view",
      "type": "function"
    },
    {
      "inputs": [
        {
          "internalType": "address",
          "name": "owner",
          "type": "address"
        }
      ],
      "name": "getAllAdoptedPetsByOwner",
      "outputs": [
        {
          "components": [
            {
              "internalType": "uint256",
              "name": "id",
              "type": "uint256"
            },
            {
              "internalType": "string",
              "name": "category",
              "type": "string"
            },
            {
              "internalType": "string",
              "name": "breed",
              "type": "string"
            }
          ],
          "internalType": "struct PetAdoption.Pet[]",
          "name": "",
          "type": "tuple[]"
        }
      ],
      "stateMutability": "view",
      "type": "function"
    },
    {
      "inputs": [],
      "name": "getAllPets",
      "outputs": [
        {
          "components": [
            {
              "internalType": "uint256",
              "name": "id",
              "type": "uint256"
            },
            {
              "internalType": "string",
              "name": "category",
              "type": "string"
            },
            {
              "internalType": "string",
              "name": "breed",
              "type": "string"
            }
          ],
          "internalType": "struct PetAdoption.Pet[]",
          "name": "",
          "type": "tuple[]"
        }
      ],
      "stateMutability": "view",
      "type": "function"
    },
    {
      "inputs": [],
      "name": "getAllUnadoptedPets",
      "outputs": [
        {
          "components": [
            {
              "internalType": "uint256",
              "name": "id",
              "type": "uint256"
            },
            {
              "internalType": "string",
              "name": "category",
              "type": "string"
            },
            {
              "internalType": "string",
              "name": "breed",
              "type": "string"
            }
          ],
          "internalType": "struct PetAdoption.Pet[]",
          "name": "",
          "type": "tuple[]"
        }
      ],
      "stateMutability": "view",
      "type": "function"
    },
    {
      "inputs": [],
      "name": "getOwner",
      "outputs": [
        {
          "internalType": "address",
          "name": "",
          "type": "address"
        }
      ],
      "stateMutability": "view",
      "type": "function"
    }
  ],
  "bytecode": "0x60a0604052348015600f57600080fd5b503373ffffffffffffffffffffffffffffffffffffffff1660808173ffffffffffffffffffffffffffffffffffffffff1681525050600080819055506080516119a161006d60003960008181610e6b0152610e9101526119a16000f3fe608060405234801561001057600080fd5b506004361061007d5760003560e01c80636410088d1161005b5780636410088d146100da57806373c6bb5b1461010a578063893d20e814610128578063932ce2f2146101465761007d565b806319b81577146100825780633ff4a0eb1461009e5780635b236d97146100bc575b600080fd5b61009c60048036038101906100979190611029565b610162565b005b6100a6610303565b6040516100b3919061120e565b60405180910390f35b6100c4610669565b6040516100d1919061120e565b60405180910390f35b6100f460048036038101906100ef919061128e565b6107f6565b604051610101919061120e565b60405180910390f35b610112610b01565b60405161011f919061120e565b60405180910390f35b610130610e67565b60405161013d91906112ca565b60405180910390f35b610160600480360381019061015b919061141a565b610e8f565b005b60005481106101a6576040517f08c379a000000000000000000000000000000000000000000000000000000000815260040161019d906114ef565b60405180910390fd5b600073ffffffffffffffffffffffffffffffffffffffff166002600083815260200190815260200160002060009054906101000a900473ffffffffffffffffffffffffffffffffffffffff1673ffffffffffffffffffffffffffffffffffffffff1614610248576040517f08c379a000000000000000000000000000000000000000000000000000000000815260040161023f9061155b565b60405180910390fd5b336002600083815260200190815260200160002060006101000a81548173ffffffffffffffffffffffffffffffffffffffff021916908373ffffffffffffffffffffffffffffffffffffffff160217905550600360003373ffffffffffffffffffffffffffffffffffffffff1673ffffffffffffffffffffffffffffffffffffffff16815260200190815260200160002081908060018154018082558091505060019003906000526020600020016000909190919091505550565b60606000805b60005481101561039657600073ffffffffffffffffffffffffffffffffffffffff166002600083815260200190815260200160002060009054906101000a900473ffffffffffffffffffffffffffffffffffffffff1673ffffffffffffffffffffffffffffffffffffffff1614610389578180610385906115aa565b9250505b8080600101915050610309565b50600081036103fc57600067ffffffffffffffff8111156103ba576103b96112ef565b5b6040519080825280602002602001820160405280156103f357816020015b6103e0610fbe565b8152602001906001900390816103d85790505b50915050610666565b60008167ffffffffffffffff811115610418576104176112ef565b5b60405190808252806020026020018201604052801561045157816020015b61043e610fbe565b8152602001906001900390816104365790505b5090506000805b60005481101561065e57600073ffffffffffffffffffffffffffffffffffffffff166002600083815260200190815260200160002060009054906101000a900473ffffffffffffffffffffffffffffffffffffffff1673ffffffffffffffffffffffffffffffffffffffff161461065157600181815481106104dd576104dc6115f2565b5b90600052602060002090600302016040518060600160405290816000820154815260200160018201805461051090611650565b80601f016020809104026020016040519081016040528092919081815260200182805461053c90611650565b80156105895780601f1061055e57610100808354040283529160200191610589565b820191906000526020600020905b81548152906001019060200180831161056c57829003601f168201915b505050505081526020016002820180546105a290611650565b80601f01602080910402602001604051908101604052809291908181526020018280546105ce90611650565b801561061b5780601f106105f05761010080835404028352916020019161061b565b820191906000526020600020905b8154815290600101906020018083116105fe57829003601f168201915b505050505081525050838381518110610637576106366115f2565b5b6020026020010181905250818061064d906115aa565b9250505b8080600101915050610458565b508193505050505b90565b60606001805480602002602001604051908101604052809291908181526020016000905b828210156107ed5783829060005260206000209060030201604051806060016040529081600082015481526020016001820180546106ca90611650565b80601f01602080910402602001604051908101604052809291908181526020018280546106f690611650565b80156107435780601f1061071857610100808354040283529160200191610743565b820191906000526020600020905b81548152906001019060200180831161072657829003601f168201915b5050505050815260200160028201805461075c90611650565b80601f016020809104026020016040519081016040528092919081815260200182805461078890611650565b80156107d55780601f106107aa576101008083540402835291602001916107d5565b820191906000526020600020905b8154815290600101906020018083116107b857829003601f168201915b5050505050815250508152602001906001019061068d565b50505050905090565b60606000600360008473ffffffffffffffffffffffffffffffffffffffff1673ffffffffffffffffffffffffffffffffffffffff16815260200190815260200160002080548060200260200160405190810160405280929190818152602001828054801561088357602002820191906000526020600020905b81548152602001906001019080831161086f575b5050505050905060008151036108f057600067ffffffffffffffff8111156108ae576108ad6112ef565b5b6040519080825280602002602001820160405280156108e757816020015b6108d4610fbe565b8152602001906001900390816108cc5790505b50915050610afc565b6000815167ffffffffffffffff81111561090d5761090c6112ef565b5b60405190808252806020026020018201604052801561094657816020015b610933610fbe565b81526020019060019003908161092b5790505b50905060005b8251811015610af557600183828151811061096a576109696115f2565b5b602002602001015181548110610983576109826115f2565b5b9060005260206000209060030201604051806060016040529081600082015481526020016001820180546109b690611650565b80601f01602080910402602001604051908101604052809291908181526020018280546109e290611650565b8015610a2f5780601f10610a0457610100808354040283529160200191610a2f565b820191906000526020600020905b815481529060010190602001808311610a1257829003601f168201915b50505050508152602001600282018054610a4890611650565b80601f0160208091040260200160405190810160405280929190818152602001828054610a7490611650565b8015610ac15780601f10610a9657610100808354040283529160200191610ac1565b820191906000526020600020905b815481529060010190602001808311610aa457829003601f168201915b505050505081525050828281518110610add57610adc6115f2565b5b6020026020010181905250808060010191505061094c565b5080925050505b919050565b60606000805b600054811015610b9457600073ffffffffffffffffffffffffffffffffffffffff166002600083815260200190815260200160002060009054906101000a900473ffffffffffffffffffffffffffffffffffffffff1673ffffffffffffffffffffffffffffffffffffffff1603610b87578180610b83906115aa565b9250505b8080600101915050610b07565b5060008103610bfa57600067ffffffffffffffff811115610bb857610bb76112ef565b5b604051908082528060200260200182016040528015610bf157816020015b610bde610fbe565b815260200190600190039081610bd65790505b50915050610e64565b60008167ffffffffffffffff811115610c1657610c156112ef565b5b604051908082528060200260200182016040528015610c4f57816020015b610c3c610fbe565b815260200190600190039081610c345790505b5090506000805b600054811015610e5c57600073ffffffffffffffffffffffffffffffffffffffff166002600083815260200190815260200160002060009054906101000a900473ffffffffffffffffffffffffffffffffffffffff1673ffffffffffffffffffffffffffffffffffffffff1603610e4f5760018181548110610cdb57610cda6115f2565b5b906000526020600020906003020160405180606001604052908160008201548152602001600182018054610d0e90611650565b80601f0160208091040260200160405190810160405280929190818152602001828054610d3a90611650565b8015610d875780601f10610d5c57610100808354040283529160200191610d87565b820191906000526020600020905b815481529060010190602001808311610d6a57829003601f168201915b50505050508152602001600282018054610da090611650565b80601f0160208091040260200160405190810160405280929190818152602001828054610dcc90611650565b8015610e195780601f10610dee57610100808354040283529160200191610e19565b820191906000526020600020905b815481529060010190602001808311610dfc57829003601f168201915b505050505081525050838381518110610e3557610e346115f2565b5b60200260200101819052508180610e4b906115aa565b9250505b8080600101915050610c56565b508193505050505b90565b60007f0000000000000000000000000000000000000000000000000000000000000000905090565b7f000000000000000000000000000000000000000000000000000000000000000073ffffffffffffffffffffffffffffffffffffffff163373ffffffffffffffffffffffffffffffffffffffff1614610f1d576040517f08c379a0000000000000000000000000000000000000000000000000000000008152600401610f14906116cd565b60405180910390fd5b6000604051806060016040528060005481526020018481526020018381525090506001819080600181540180825580915050600190039060005260206000209060030201600090919091909150600082015181600001556020820151816001019081610f899190611899565b506040820151816002019081610f9f9190611899565b505050600080815480929190610fb4906115aa565b9190505550505050565b60405180606001604052806000815260200160608152602001606081525090565b6000604051905090565b600080fd5b600080fd5b6000819050919050565b61100681610ff3565b811461101157600080fd5b50565b60008135905061102381610ffd565b92915050565b60006020828403121561103f5761103e610fe9565b5b600061104d84828501611014565b91505092915050565b600081519050919050565b600082825260208201905092915050565b6000819050602082019050919050565b61108b81610ff3565b82525050565b600081519050919050565b600082825260208201905092915050565b60005b838110156110cb5780820151818401526020810190506110b0565b60008484015250505050565b6000601f19601f8301169050919050565b60006110f382611091565b6110fd818561109c565b935061110d8185602086016110ad565b611116816110d7565b840191505092915050565b60006060830160008301516111396000860182611082565b506020830151848203602086015261115182826110e8565b9150506040830151848203604086015261116b82826110e8565b9150508091505092915050565b60006111848383611121565b905092915050565b6000602082019050919050565b60006111a482611056565b6111ae8185611061565b9350836020820285016111c085611072565b8060005b858110156111fc57848403895281516111dd8582611178565b94506111e88361118c565b925060208a019950506001810190506111c4565b50829750879550505050505092915050565b600060208201905081810360008301526112288184611199565b905092915050565b600073ffffffffffffffffffffffffffffffffffffffff82169050919050565b600061125b82611230565b9050919050565b61126b81611250565b811461127657600080fd5b50565b60008135905061128881611262565b92915050565b6000602082840312156112a4576112a3610fe9565b5b60006112b284828501611279565b91505092915050565b6112c481611250565b82525050565b60006020820190506112df60008301846112bb565b92915050565b600080fd5b600080fd5b7f4e487b7100000000000000000000000000000000000000000000000000000000600052604160045260246000fd5b611327826110d7565b810181811067ffffffffffffffff82111715611346576113456112ef565b5b80604052505050565b6000611359610fdf565b9050611365828261131e565b919050565b600067ffffffffffffffff821115611385576113846112ef565b5b61138e826110d7565b9050602081019050919050565b82818337600083830152505050565b60006113bd6113b88461136a565b61134f565b9050828152602081018484840111156113d9576113d86112ea565b5b6113e484828561139b565b509392505050565b600082601f830112611401576114006112e5565b5b81356114118482602086016113aa565b91505092915050565b6000806040838503121561143157611430610fe9565b5b600083013567ffffffffffffffff81111561144f5761144e610fee565b5b61145b858286016113ec565b925050602083013567ffffffffffffffff81111561147c5761147b610fee565b5b611488858286016113ec565b9150509250929050565b600082825260208201905092915050565b7f4f7574206f662072616e67650000000000000000000000000000000000000000600082015250565b60006114d9600c83611492565b91506114e4826114a3565b602082019050919050565b60006020820190508181036000830152611508816114cc565b9050919050565b7f50657420616c72656164792061646f7074656400000000000000000000000000600082015250565b6000611545601383611492565b91506115508261150f565b602082019050919050565b6000602082019050818103600083015261157481611538565b9050919050565b7f4e487b7100000000000000000000000000000000000000000000000000000000600052601160045260246000fd5b60006115b582610ff3565b91507fffffffffffffffffffffffffffffffffffffffffffffffffffffffffffffffff82036115e7576115e661157b565b5b600182019050919050565b7f4e487b7100000000000000000000000000000000000000000000000000000000600052603260045260246000fd5b7f4e487b7100000000000000000000000000000000000000000000000000000000600052602260045260246000fd5b6000600282049050600182168061166857607f821691505b60208210810361167b5761167a611621565b5b50919050565b7f596f7520617265206e6f74206120636f6e7472616374206f776e65722e000000600082015250565b60006116b7601d83611492565b91506116c282611681565b602082019050919050565b600060208201905081810360008301526116e6816116aa565b9050919050565b60008190508160005260206000209050919050565b60006020601f8301049050919050565b600082821b905092915050565b60006008830261174f7fffffffffffffffffffffffffffffffffffffffffffffffffffffffffffffffff82611712565b6117598683611712565b95508019841693508086168417925050509392505050565b6000819050919050565b600061179661179161178c84610ff3565b611771565b610ff3565b9050919050565b6000819050919050565b6117b08361177b565b6117c46117bc8261179d565b84845461171f565b825550505050565b600090565b6117d96117cc565b6117e48184846117a7565b505050565b5b81811015611808576117fd6000826117d1565b6001810190506117ea565b5050565b601f82111561184d5761181e816116ed565b61182784611702565b81016020851015611836578190505b61184a61184285611702565b8301826117e9565b50505b505050565b600082821c905092915050565b600061187060001984600802611852565b1980831691505092915050565b6000611889838361185f565b9150826002028217905092915050565b6118a282611091565b67ffffffffffffffff8111156118bb576118ba6112ef565b5b6118c58254611650565b6118d082828561180c565b600060209050601f83116001811461190357600084156118f1578287015190505b6118fb858261187d565b865550611963565b601f198416611911866116ed565b60005b8281101561193957848901518255600182019150602085019450602081019050611914565b868310156119565784890151611952601f89168261185f565b8355505b6001600288020188555050505b50505050505056fea26469706673582212206d97e9f408d6db897a88503dbdc064686b4edfe9167d7d3899331013b379311a64736f6c634300081b0033",
  "linkReferences": {},
  "deployedLinkReferences": {}
}